:10000000CCC60000DCC60000DAC60000D8C600007E
:10001000D6C60000D4C60000D2C600000C94270E3D
:10002000CEC60000CCC600000C94B51F0C9451271E
:10003000C6C600000C948F1FC2C60000C0C60000D8
:10004000BEC60000BCC60000BAC60000B8C60000AC
:10005000B6C600000C94280EB2C60000B0C6000060
:10006000AEC60000ACC60000AC08AE08B208BC08C2
:10007000BA08B608B608B808C208C208E62FF72FB3
:10008000903009F49395E5B8C4B8B6EFB0937A0010
:10009000A5E0A0937B00A8E0A093810010928000CF
:1000A000AFEFA0938500A0938400A6E0A093360054
:1000B00010928B0010928A00B3E0AFE3A91B51E0CD
:1000C000392F33302AF0A05CBC4F53953350F9CF11
:1000D000B0938900A0938800A0917A00A4FFFCCF80
:1000E000B6EBB0937A00A2E0A0936F00A9E0A093D2
:1000F000810062E0A0E0A0937B00A1E0A093530008
:100100008895E5B8C4B884FF1AC0A8E10000AA9594
:10011000F1F7EF93FF93E7B1F8B1A4E0C2FCA2E0DE
:10012000C0FCA1E0BF2FBA2BAE2BB8B904B9A7B958
:10013000E7B9F8B9FF91EF910BC00C947D00ACE1E9
:1001400000000000AA95F1F725B9E5B8000004B950
:10015000A0918400A0918500B0918900A395AB1770
:1001600060F7A0917A00A4FFF3CFB6EBB0937A00CA
:100170006A9571F76091780070917900308186FD01
:10018000630F6193308186FD731F80FF7193652F2C
:100190004A9579F710926F0010928100B6E0B09303
:1001A0007A000895EA01E301DC011008407E0101B4
:1001B0003E01013E01013E01017E40401800072042
:1001C000080808F80000002060A03FA0602002029C
:1001D00002FF0202021010101F00000005084281F9
:1001E0008989760508C2A19189860508000402FF65
:1001F0000010100508F878385888091003081C3ECC
:100200007F0D080710FF818181F1E1C1FF4040406F
:100210004743410D080110FFFF11080310F1E1C130
:100220004743410E0008202121122060E0E0E0FE5B
:10023000FE0402010001037F7F21C2C4C4C04094B8
:10024000840007030102040E080210FEFE7F7F00F7
:10025000000000110005202060E0E0E00201000144
:1002600003C2C4C4C0400703010204010410090A08
:100270000C4E6F742063616C6962726174656421F5
:1002800020466F72FF63616C6962726174696F6EA0
:1002900020636C616D70207468652033FF70696E37
:1002A0007320746F67657468657220616E64207373
:1002B00074617274207769746820746865FF6B6577
:1002C000792E2041636B6E6F776C6564676520746F
:1002D00068652073656C662D746573742077697426
:1002E0006820746865206B65792077697468696E29
:1002F000FF32732E20446973636F6E6E65637420E2
:1003000070696E7320616674657220746865FF6D34
:10031000657373616765202269736F6C617465FF33
:1003200050726F626521222069732073686F776E47
:100330002E20536F66747761726520616E6420644D
:100340006F63756D656E746174696F6E206973207B
:1003500061742073766E3A2F2F206D696B726F6314
:100360006F6E74726F6C6C65722E206E65742F7474
:1003700072616E736973746F7220746573746572E1
:100380002000B903870358032E030703E402C302C6
:10039000A40288020000140029003E0053006900F6
:1003A00080009700AE00C600DF00F80012012D01AA
:1003B000490165018201A001BE01DE01FF012102A8
:1003C000440268028E02B502DE02090335036403AB
:1003D0009403C803FE0337047304B404F90443050B
:1003E0009305EA054906B3062907AE074808FF0842
:1003F000DE09FD0A930C480F991B00000000000065
:10040000000000000000000000001E212121120059
:10041000807F0000007E4A4A4A340000000000004D
:10042000FC4020100804020100000001010101014C
:1004300001010101010101017F0488D0E0F0F80011
:1004400000000000000000000000000000000000AC
:1004500000FC94948400000102FC000000000000F5
:100460000000000000001E21212112E0C080402079
:10047000100F000000C020202040000000FC000001
:100480009E9E040303030302000000202023242572
:1004900025232020203F00007B7B2142840480C054
:1004A0000000000000000000000000000000FC94BC
:1004B000948400040607070708F00000000000000D
:1004C00000000000000000803F2121120C0000000D
:1004D00000FF000000F0084848C80000FE0000E7E8
:1004E000818181C1E1F181818101002020202121D0
:1004F000212020203F0000F340404041434740403E
:100500007FC00000000000000000000000000000AC
:10051000489494946400000000FF00000000000074
:10052000000000000000000000003F2121120C002C
:1005300000FF000000F0084848D000000000000064
:10054000FEFE040404040404040700080808090962
:100550000908087F3E1C08087F7F202020202020DB
:1005600020E000000000000000000000000000008B
:10057000000048949494640000FF00000000000014
:100580000000000000FF003C0A090A3C002231295B
:100590002926000082868E9EBEFEFEBEDEEFF6FAA3
:1005A000FEFEFAF2E2C282000000080808040279A6
:1005B00084A4A46800FF0000000000000000000008
:1005C00000000000000000000000000000FF00002C
:1005D000F0282428F0001008FC00000000000000B3
:1005E00000000000003C0A090A3C00FF0000000077
:1005F0000000000000000000000000000000040CEB
:100600001C3C7CFF7C3C1C0C040000000000009E95
:10061000A1A9A99A804323130B0703FF0303030334
:100620000303000000000000000000000078848444
:10063000844800FF000000000000000000F00804F3
:10064000E2110909090909090909091121C2040866
:1006500010E0000000010204040700000000008018
:10066000402010884423100804030000000000000C
:100670000000000000FE0100FC020100000000007C
:10068000000000000000000000000000007949495F
:100690007900000000000000000040F0101010F091
:1006A000400001010101010040F8F0E040F8400085
:1006B00003010000030040F840E0F0F840000300B0
:1006C0000001030040FCFC00FCFC400007070007A1
:1006D0000700E0101010E00000040700070400000D
:1006E00000F80000F000000E0102010302000808FB
:1006F000080808F8400202020202030040F8080855
:100700000808080003020202020240404040404044
:1007100040000000000000004040C00000800000D9
:1007200000010202010200800000C04040020102FC
:100730000201000000FC021212EC000E0300010195
:1007400000000000000000000000000000000000A9
:100750000000000000000000000000000000000099
:100760000000000000000000000000000000000089
:100770000000000000000000000000F80402FE027B
:10078000000C070404070C00FE000000FE00000738
:10079000040404070C00FE00FE00FE00000704072E
:1007A00004070C0000E01008F808000C0704040718
:1007B0000C00E014FC14E00000010A0F0A01000024
:1007C000F8000000F8000007040404070C00F8001B
:1007D000F800F8000007040704070C000000000000
:1007E0000000000000000000000000000000000009
:1007F00000000000000000000000000000000000F9
:1008000000000000000000000000000000000000E8
:1008100000000000000000000000000000000000D8
:1008200000000000000000000000000000000000C8
:1008300000000000000000000000000000000000B8
:1008400000000000000000000000000000000000A8
:100850000000000000000000000000000000000098
:10086000000000000000000000003CFE3C00000012
:1008700000001B00000000160E00160E0000000015
:100880000000000008FE0808FE080001070101073B
:10089000010038FE4484FE0800041F08081F0700FA
:1008A0001C149C402018000601000E0A0E008854FB
:1008B000225488C000030404020106000000160E42
:1008C00000000000000000000000F0080402020028
:1008D00000030408101000000002020408F00000E9
:1008E0001010080403004850E0E0504800020100E6
:1008F00000010200004040F0404000000000010004
:100900000000000000000000000000160E000000C3
:100910004040404040400000000000000000000057
:1009200000000000000000060600000000008040FB
:1009300020100002010000000000F804020204F888
:100940000001020404020100000804FE020000008D
:10095000000407040000080482422418000605046D
:1009600004040600060212122AC600010204040250
:100970000100E0988680F880000000000407040071
:100980003E22121222C60001020404020100F824D1
:10099000121222C000010204040201000602C26217
:1009A000321E0000000700000000885422225488F4
:1009B00000010204040201003844828244F800006D
:1009C00004040402010000003030000000000006B2
:1009D000060000000000303000000000000A0600A1
:1009E00000000040A0100804000000000102040004
:1009F000202020202020000101010101010000042D
:100A00000810A04000000402010000001804824207
:100A100024180000000D00000000F804629294F811
:100A2000000102040404020000F8848284F800003B
:100A300007000000070002FE222222DC0004070457
:100A400004040300F8040202040E0001020404047A
:100A5000030002FE020204F800040704040201007D
:100A600002FE22720206000407040404060002FECD
:100A7000227202060004070400000000F80402824B
:100A8000848E000102040402070000FE202020FEE4
:100A90000000070000000700000002FE0200000046
:100AA00000040704000000000002FE02000002042F
:100AB0000403000002FE22F09C0600040704000765
:100AC000040002FE02000000000407040404060003
:100AD00000FE1C701CFE0000070000000700FE1C4A
:100AE00070C0FE000007000001070000F8040202C9
:100AF00004F8000102040402010002FE4242423CEA
:100B00000004070400000000F804020204F80001D9
:100B100002040502050002FE42C2423C0004070036
:100B2000000704000C122222448E00010204040279
:100B30000100000E02FE020E000000040704000087
:100B400000FE000000FE0000030404040300007E19
:100B5000C000C07E000000010701000000FE80F818
:100B600080FE00000107010701008ED87070D88E4A
:100B700000070000000007003E60C0603E0000006B
:100B800004070400000006824222120E000704043B
:100B90000404060000FE0202020000000F0808081C
:100BA000000008102040800000000000000001024A
:100BB00000020202FE0000000808080F0000000802
:100BC0000402040800000000000000000000000013
:100BD0000000000808080808080800000E160000B9
:100BE0000000000000000000C0282848F0000003BA
:100BF00004040403040002FE120808F000040704C1
:100C000004040300E0100808103800010204040482
:100C10000200F0080810FE020003040404070400A8
:100C2000E090888890E000010204040400000010B5
:100C3000FC1212040000040704000000F008080879
:100C4000F00800010A0A0907000002FE100808F077
:100C50000004070400000700000016F60000000072
:100C600000040704000000000016F600000004085D
:100C70000807000002FE40F098080004070400077F
:100C80000400000002FE0000000000040704000051
:100C900008F808F008F0000407000700070008F84B
:100CA000100808F00004070000000700E010080822
:100CB00010E0000102040402010008F0080808F036
:100CC00000080F0902020100F0080808F0080001FE
:100CD0000202090F080008F8201008300004070479
:100CE0000000000030484848903800020404040422
:100CF00003000010FE1010000000000304040200B6
:100D0000F8000000F808000304040207040078C09B
:100D100000C078000000010701000000F880F080AA
:100D2000F800000107010701000018B0C0C0B018AA
:100D3000000603000003060008F80000F8080000A1
:100D4000090A0A0700001808884828180006050440
:100D5000040406000040A01C020200000000070876
:100D600008000000003E0000000000001F0000001E
:100D70000002021CA0400000080807000000040652
:100D80000206040600000000000000000000000051
:100D90000000000000000000000011241FBECFEF83
:100DA000D8E0DEBFCDBF21E0A0E0B1E001C01D92E0
:100DB000A63BB207E1F70E941A2C0C941E3320C9FF
:100DC0006F938F935598BBD5529AB9D588E70ED0BB
:100DD0006F9180E860FD80E409D08F9107D0529A2E
:100DE000AED55598ACD55298AAC508950894881FD9
:100DF000559A10F4529801C0529AA1D555989FD592
:100E0000880FB1F7559A52989AD555984D9BFECFB9
:100E10004A9981E094D5559A92C50895529855986B
:100E20005A985D98089560933B01809304018695DC
:100E300080939D0187E0689F602D112460930F01CE
:100E4000089580913B018093010180919D018093E1
:100E5000030108958091030160910101880FE3CFA0
:100E60000895CF93C82F692F81E0AADF6C2F81E00E
:100E7000A7DFCF910895682F80E0A2CF08958EEA72
:100E8000FADF85EAF8CF08958DE024D58AE022C5FF
:100E9000089510929D0160E080E0C5DFF5CF0895D0
:100EA000CF93DF93C0E080E1E6DF80E0E4DF8C2FCA
:100EB000806BE1DFD4E860E081E082DFD150D9F7D8
:100EC000CF5FC83081F7E5DFDF91CF910895A6DFCE
:100ED00084E138D58EEACFDF82EECDDF82EACBDF48
:100EE00080EAC9DF80ECC7DF85EDC5DF80E8C3DFBE
:100EF0008DE8C1DF84E1BFDF81E8BDDF8DE892E0EE
:100F00000E94F032B8DF80E4B6DF84EAB4DF86EA1C
:100F1000B2DFC6DF8FEAAFDF60E080E084CF089504
:100F200081E080939D0160E082E07DDFADCF089598
:100F300082E080939D0160E084E075DFA5CF089595
:100F400083E080939D0160E086E06DDF9DCF089592
:100F50000895582F28E030E090E841E080E0652FC8
:100F6000642309F0892B440F969521503109B9F774
:100F70000895A0E0B0E0EFEBF7E00C948732EC01CD
:100F8000302FC02ED12CC601860F911D81389105BE
:100F90000CF06DC0F12CE40EF11C81E4E816F104B4
:100FA0000CF065C0742E769476947694E1E0EE1A97
:100FB000F10883E0F594E7948A95E1F7F22FF27057
:100FC0004F2E21FF0DC0C7019927871991098C9DCC
:100FD000A0018D9D500D9C9D500D1124C40FD51F57
:100FE0001E2D183008F017E000E8031B061B802FA9
:100FF00082958F708061382E87E0682E67180F7099
:101000002170522E171568F1862D806B34DF832DE9
:1010100032DF802F30DF5E01AC0CBD1CC5014E01FC
:10102000C817D907A9F09C01215031097901511045
:1010300002C0F90101C0F4018491411001C089DFAF
:10104000682F81E0BDDEC701FFEF8F1A9F0AE8CF4E
:10105000442019F05E01AC18BD0873946A94E50150
:10106000D1CF9091040187E0891B806B04DFCDB75D
:10107000DEB7E1E10C94A332EF920F93482F282FB3
:101080002F7380E6289F90011124C90186509C4F40
:1010900046FF02C028E001C028E42093100147FF6A
:1010A00003C01092000108C020E2209300012091AB
:1010B00010012D5E2093100120E2E22E08E120E0D5
:1010C000409100016091100154DF0F91EF9008955D
:1010D000EF920F93262FFC01649131964491319643
:1010E00004913196E49030910001430F309110014A
:1010F000630F04963EDF0F91EF90089560E0E8CF14
:101100000895EF920F93CF93C82F80913B018F5F8B
:1011100080933B0140910401440F440F440F2EE0A3
:10112000C29FC001112420E1E22E07E020E060917F
:101130000F018656994F1DDF80910F01895F8093C3
:101140000F018C2F90E0FC013197EA30F105E0F4BB
:10115000EC5CFF4F0C9461328EE305C08CE7BAD390
:101160008CE313C08CE7B6D38CE70FC082E50DC0CB
:101170008DE20BC085E709C08FE4ACD388E6AAD323
:101180008DE603C08CE401C08C2FA4D3A895CF9129
:101190000F91EF9008958F5CB4CF089580E2B1CFA6
:1011A0000895CF93C82F1C161CF4F8DFC150FBCF55
:1011B000CF91089590913B0182E1891BF2CF089570
:1011C000CF93C82FF7DF80919D018F5F80939D01A2
:1011D000843038F083E080939D0181E080933E016C
:1011E00002C010923E0180919D016C2F880F1BDE82
:1011F0004BDECF910895E4DF8BD480919D01833045
:1012000008F042CE089545DED5DF43CE089588DE4E
:10121000D1DF86CE08958DE374CF0895CF93DF9309
:10122000EC018991882311F06CDFFBCFDF91CF9126
:101230000895CF93DF93EC01FE018491982F9F775F
:1012400019F05FDF2196F8CFDF91CF910895CF930A
:10125000DF93EC01CE010E94F032982F9F7719F0B6
:1012600050DF2196F7CFDF91CF910895EF920F9342
:10127000FC0104913196E49002967BDE0F91EF9091
:1012800008950F938EE791E0E2DF409181014D3F99
:1012900064F460916F01709170018091710190917F
:1012A000720103E026E418D102C08FE32ADF0F9118
:1012B0000895909119019F70923071F49CDF84E73A
:1012C00090E0C5DFE0913C01F0913D0122E044E077
:1012D0006FEF84819581B3C1089597FF09C08F9303
:1012E0009F938DE20EDF9F918F91909581959F4FF7
:1012F00061E271E04AE050E00E94BD328FCF089574
:10130000ECDF01C0EADF4ACF0895EF92FF920F931E
:101310001F93182F062FF42E80E691E098DFEE241D
:10132000E0913C01F0913D018685E81611F4812F92
:1013300009C08485E81611F4802F04C08585E8165D
:1013400011F48F2DDEDEE3948E2D833049F71F914B
:101350000F91FF90EF900895EF92FF920F931F93DC
:10136000182F062FF42E80E046DF86E691E06FDF2F
:10137000EE248E2D10DF4FDFE0913C01F0913D0116
:101380008685E81611F4812F09C08485E81611F4CA
:10139000802F04C08585E81611F48F2DB2DEFEDEA5
:1013A000E3948E2D833029F71F910F91FF90EF90DA
:1013B0000895682F80E092E0662309F491E062309E
:1013C00009F481E008950F93282F84E0289FF0010D
:1013D0001124E256FE4F60817181828193816436CF
:1013E00071058105910578F43091020137FD0BC03C
:1013F000822FDFDF682F892F0E94F92423E044E049
:101400006EEF1DD104C004E024E04FEF65D0C6DECE
:101410000F910895863058F4E1E9F1E0E80FF11DED
:10142000E80FF11D8081918163E014D1B7CE08955A
:101430001F93182F80916B01882319F0AFDE80E095
:1014400060DE6EDD87E591E002DF812F82958F708F
:10145000E1DF812F8F70DEDF1F91089580911101F0
:1014600082958F7019D08091110183701CD080916A
:101470001101DECF0895E5E8F1E0E80FF11D0895D0
:10148000CF93F9DF9081C681C91710F405D001C050
:1014900013D084DECF910895EEDF8F9380817BDEC1
:1014A0008F9101C008958F9385E291E0D0DE8F91F6
:1014B000E2DF868170CE0895DEDF8F9386816BDE5A
:1014C0008F9101C008958F9381E291E0C0DE8F91EA
:1014D000D2DF808160CE0895AEE0B0E0E2E7FAE0CE
:1014E0000C948632242E322E6B017C01102F1F703B
:1014F00080E389838A838B838C838D838E83F7FE3D
:101500000BC08DE2FEDDF094E094D094C094C11C39
:10151000D11CE11CF11C04C005FF02C08BE2F1DD0F
:10152000133029F0143031F084E690E005C088EEE5
:1015300093E002C080E197E22C01612C712C9AE0CB
:10154000892E912CA12CB12CC414D504E604F704E7
:1015500070F0C701B6016B5F7F4F8F4F9F4FA501A2
:1015600094010E94233269017A012394EDCF86E031
:10157000821963E00E940332792E4E0187E0880EC3
:10158000911C4AE0B401C6010E94C732F4010190E7
:101590000020E9F731977F01E818F90881E1820D11
:1015A0009BEA899F812D1124869590E0845D9F4F51
:1015B0000E94F032D82E04FF04C0E11610F41E1968
:1015C00001C010E0BE2CB718B10E1B1424F08EE23F
:1015D00098DD172D1E19711002C088EFB82EC12C8E
:1015E000012F10E048018E0C911CEB2C0B2C000CF1
:1015F000FF088C2D90E088159905ACF4FC01369617
:10160000E01BF10B81E090E08C0F9D1FE80FF91FAC
:10161000808177DDC3948C2D90E08E159F0549F76E
:101620008EE26FDDE6CFDD2011F08D2D6ADD3320F7
:1016300011F0832D66DD2E96E2E10C94A2320F9319
:10164000362FBC0180E090E0022F242F432F44DF8F
:101650000F9108950F93062FBC0180E090E026E5DE
:101660004DEF3ADF0F910895E82FF0E0EE0FFF1FE6
:10167000EC55FE4FA591B49190910001490F9091C6
:101680001001690F20E0CD01F1CD0895CF93DF93D4
:10169000C82FD62FE0913C01F0913D0148E16EE169
:1016A0008685E2DFE0913C01F0913D014D2F6C2FEA
:1016B0008485DADFE0913C01F0913D0140E06EE18C
:1016C0008585D2DFDF91CF9108951F93CF93DF936C
:1016D000E7DB80ECD1DC62E08CEB91E0F9DC80E8C8
:1016E000CBDC81EF91E00ADD60E085E09CDB83E705
:1016F00091E0ADDD69E085E096DB8BE691E0A7DD6A
:1017000088E99AE3C9D1CCDB83E4B6DC83E0B4DCBE
:101710008AEF91E0F3DC61E082E085DB8EE4F1DCCE
:101720008DE2EFDC8DE891E092DD6AE082E07BDB28
:1017300080E5E7DC8DE2E5DC8DE891E088DD88E995
:101740009AE3AAD1ADDB81EC97DC81E895DC83E5F7
:1017500092E0D4DC60E085E066DB8EE4D2DC8DE2F2
:10176000D0DC85E4CEDC87E891E071DD69E086E0DD
:101770005ADB80E5C6DC8DE2C4DC85E4C2DC87E8A8
:1017800091E065DD88E99AE387D18ADB81E474DC46
:1017900087E492E0B3DC81E06FDC83E292E0AEDCD0
:1017A00060E081E040DB8EE4ACDC8DE2AADC84E426
:1017B000A8DC87E891E04BDD69E082E034DB80E57E
:1017C000A0DC8DE29EDC84E49CDC87E891E03FDDD8
:1017D00088E99AE361D164DB82EC4EDC82E84CDC80
:1017E00089E192E08BDC60E085E01DDB8EE489DC42
:1017F0008DE287DC85E485DC82E991E028DD69E023
:1018000086E011DB80E57DDC8DE27BDC85E479DC44
:1018100082E991E01CDD88E99AE33ED141DB82E474
:101820002BDC83E192E06ADC82E026DC81E092E05E
:1018300065DC61E081E0F7DA8EE463DC8DE261DC97
:1018400084E45FDC82E991E002DD6AE082E0EBDAC9
:1018500080E557DC8DE255DC84E453DC82E991E0DD
:10186000F6DC88E99AE318D11BDB13DB86E091E014
:10187000EEDC56DB81E091E0EADC5ADB89E491E0C2
:10188000E6DC5EDB85E291E0E2DC88DC81E291E08F
:10189000DEDCC0E012E18C2F612F0E940332911137
:1018A0000BC0D82FD37021F488E99AE3F5D0F8DA89
:1018B00060E08D2F880FB7DA80E28C0F22DCCF5FDB
:1018C000CF3549F788E99AE3E7D0EADADF91CF919B
:1018D0001F9108958F932F932AE080953B9A089447
:1018E00010F4439802C0439A000020D027D0869578
:1018F0002A95B1F72F918F91089503D002D001D08E
:1019000000D000D003D002D001D000D000D003D04E
:1019100002D001D000D000D0A89503D002D001D0D1
:1019200000D000D003D002D001D000D000D003D02E
:1019300002D001D000D000D003D002D001D000D01E
:101940000000089590E0893C28F0885C48EC849F72
:10195000C0011124009709F4089520918100277097
:1019600019F0DADF0197F6CF8130910519F002976F
:101970003EE303C037E180E090E02091B200230F06
:101980002093B30042E04093700027E023BF889586
:1019900026E023BF10927000A895DCCF8F9384E0DF
:1019A000D1DF07C08F9382E0CDDF03C08F9381E04A
:1019B000C9DF8F911F93182F106410937C00E12FC3
:1019C000E07880912C01E81759F0E0932C01AEDF0C
:1019D0008EE980937A0083E083BF889582E083BF9D
:1019E00020E030E0A901E0E01FC08EE980937A009A
:1019F00083E083BF889582E083BF60917800709117
:101A00007900260F371F411D511DE43061F480918C
:101A10002E01803041F084E02030380720F417FD9B
:101A200002C01068CACFEF5F80912B01E817E8F27F
:101A300060912F017091300117FF04C060912D015A
:101A400070912E0180E090E00E94F4312FEF33E09E
:101A500040E050E00E942332B901CA0120912B01DD
:101A600030E040E050E00E942332C9011F91089508
:101A70009B01281B390B50F0C9010895BC018091CE
:101A80002F01909130016817790718F4861B970B86
:101A9000089580E090E00895EF92FF920F931F93D6
:101AA000CF93DF93F82EE92EC5E64F9B05C0CF2DCF
:101AB000DE2D15E500E019C081E044DFC150A9F733
:101AC000F6CF82E03FDF110F4F9B1F5F1F731F3365
:101AD00079F4011103C0CF2DDE2D04E00F5F083C27
:101AE00088F4A8951C161D0644F0D7FFEACF0AC05B
:101AF0001111F7CF0023A9F305C02A97B1F7CFEF53
:101B0000DFEFF3CF802FCDB7DEB7E6E00C94AE3237
:101B1000CF9397D9C82F80913E018823D1F081308F
:101B200051F4C33041F461E186E07DD98BE2E9DA1A
:101B300061E186E078D980E49FE1AEDFC33041F413
:101B400080913E01813021F460E086E06CD932DB87
:101B500081D9CF91089585EB92E00E94F032382F21
:101B600086EB92E00E94F03220913301230F3091F6
:101B70003401381F209316013093170183E0283E6B
:101B8000380720F0C901885E934002C080E090E0F1
:101B900062E370E00E940F32683008F067E0E2E82C
:101BA000F3E0E60FF11DE60FF11D459155912591EA
:101BB000359162E3681B421B530B649FC001659F14
:101BC000900D1124499662E370E00E940F32620F7B
:101BD000731F70936E0160936D0187EB92E00E941A
:101BE000F032992787FD909560913301709134010F
:101BF000860F971F90932E0180932D0190936A0179
:101C0000809369010895CF93DF9324E130E0B90117
:101C10000E940F32DC01E4E9F3E0E60FF71FE60F64
:101C2000F71FC591D591459155914C1B5D0B4A9F6E
:101C3000C0014B9F900D5A9F900D1124B9010E9435
:101C40000F326C0F7D1FCB01DF91CF910895189556
:101C5000189530911801A0913C01B0913D01E5E843
:101C6000F1E080E090E08317B0F441911C962C9154
:101C70001C97421719F04581241302C00196F3CF37
:101C8000FC01EE0FFF1FEF56FE4F20813181293EF0
:101C9000334008F4089584E1089510921A011092D7
:101CA00018011092680110924E01109219011092C1
:101CB0003A0110926B01E3E5F1E010821182128289
:101CC000EFE6F1E0108A82E0818B10920201178624
:101CD0001686148215821682178281EF838B0895EF
:101CE0008FE4F8DD86E4F6DD86E4F4DDCDD8C7D8F0
:101CF0005E9806DE80E090E0CFCE08951F93CF93EC
:101D0000DF93162F98E097B998B9E82FF0E0E559DE
:101D1000FD4F949195B9262F281BE20FF11D27FD49
:101D2000FA95E491E92BE4B945DEEC01812F42DE1E
:101D3000AC0120912F013091300136952795C901D2
:101D40000397BE01625E7F4F8617970778F4255E82
:101D50003F4FC217D30750F4BA01625E7F4F861718
:101D6000970720F481E04217530708F080E014B889
:101D7000DF91CF911F910895CF9361E080E0BEDFA6
:101D8000C82F62E080E0BADFC80F62E081E0B6DF12
:101D90008C0FCF910895AEE0B0E0E1EDFEE00C9441
:101DA0008632B82E10921A01807F29F079D883EFFD
:101DB00090E04DDA67C3E0DF833009F063C370D889
:101DC00085EC91E044DAACD88FE39BD980ED97E0C5
:101DD00063DE8B3058F3A4D80E9416208FEA90E07F
:101DE00036DA60E080E992E00E94FD3260E081E94D
:101DF00092E00E94FD3260E08FE892E00E94FD32A6
:101E000060E082E00E94F9246C019A83898361E09A
:101E100082E00E94F9247C019C838B8360E081E056
:101E20000E94F9248C019E838D8323E040E26EEFB3
:101E3000C60105DC23E040E26EEFC70100DC23E0D1
:101E400044E06EEFC801FBDB2AE5C216D10424F0A2
:101E500084E190E09A838983698180E992E00E941D
:101E6000FD328AE5E816F10424F084E190E09C83D9
:101E70008B836B8181E992E00E94FD320A35110566
:101E800024F084E190E09E838D836D818FE892E061
:101E90000E94FD3282E080933E013ADEE1E0BE1214
:101EA0002CC1EE24E394F12C78EB872E72ED972E63
:101EB00077E4A72EB12CE2E0DE2E08E0F0E23F2E20
:101EC000C12C1E2D52E2252EA2D99DD984E519D907
:101ED000C7010EDA63D91130B1F482EE90E0B7D9C0
:101EE00064E08091330190913401B4DB19D88DED19
:101EF00090E0ADD980916D0190916E01F9D98EEB92
:101F000080932B01E0C0123079F520912F013091A0
:101F10003001A8E5BBE10E94673224EC36E340E0E3
:101F200050E00E94453229013A0181E085B9F5E08F
:101F3000F4B980E033DD841995099A83898381E1BE
:101F400084B980E02BDD841995099C838B8384E020
:101F500085B984E184B981E021DD841995099E83E6
:101F60008D8387EC90E09EC0133041F5D5B82AE010
:101F700024B980E013DD20912F0130913001369596
:101F8000279538872F83821B930B9A83898324B8E4
:101F900080E004DD2F813885821B930B9C838B832B
:101FA00005B988E284B981E0F9DC2F813885821B8C
:101FB000930B9E838D8389EB90E074C0143039F4C9
:101FC00085EB91E044D9D8DE811159C26FC015303C
:101FD00099F415B8D4B880E0E1DC9A83898304B918
:101FE00081E0DCDC9C838B8334B882E0D7DC9E8389
:101FF0008D8389ED90E056C0163039F5D4B8D5B848
:1020000080E0CCDC20912F0130913001821B930BBA
:102010009A83898304B905B981E0C0DC20912F013E
:1020200030913001821B930B9C838B8334B835B87D
:1020300082E0B4DC20912F0130913001821B930BA0
:102040009E838D8385ED90E02DC0173069F520913A
:102050002F0130913001A8E5BBE10E946732A50154
:1020600094010E94233229013A01D5B8E3E0E4B992
:1020700080E094DC841995099A83898305B9FCE092
:10208000F4B981E08BDC841995099C838B8335B886
:1020900020E324B982E082DC841995099E838D8334
:1020A00083EB90E0D4D802C0113069F00E94900711
:1020B00089819A8112D972D88B819C810ED96ED870
:1020C0008D819E810AD907B908B914B815B888EE70
:1020D00093E0E2DC143011F08B3020F4C39484E000
:1020E000C812F2CE88EE93E0D7DCEFEFEE1AFE0ACC
:1020F000F8E0EF16F10409F0E3CE18E73DDE8111B8
:1021000071C00E94500788EA90E0A1D823E044E023
:102110006FEF809131019091320191DA0E94900726
:1021200081EA90E094D823E044E06FEF8091380199
:102130009091390184DA82E080933E01E9DC1092CB
:102140001A010E9450078DE990E081D860E082E09A
:102150000E94D11C8090770190907801A090790125
:10216000B0907A019C868B8661E082E00E94D11C4F
:10217000C0907701D0907801E0907901F0907A01D9
:10218000DE86CD8660E081E00E94D11C009177015F
:10219000109178011E830D8362E080E00E94D11CC3
:1021A00080917701909178019C838B8362E081E03C
:1021B0000E94D11C80917701909178019A8789873C
:1021C00061E080E00E94D11C8091770190917801BC
:1021D0009A83898320913701223071F4029698877F
:1021E0008F830EC014D885EB91E031D884E6AADB4A
:1021F000115009F083CF85CF98878F8310923701D4
:10220000C40180D8C6017ED8B801110F880B990B84
:1022100003E026E444EF60D98E010F5F1F4F6E018B
:102220002FE0C20ED11CF801819191910A97853B54
:102230009105D8F4CE16DF06B9F74EEAE42E42E057
:10224000F42EF80160810E5F1F4F6E5EC7010E9481
:10225000FD32FFEFEF1AFF0AC016D10691F70E9478
:10226000900783EA91E00E94270982E080933E0173
:102270004FDC0E94B6280E94500780E00E94CB08E5
:1022800089E491E00E94270982E00E94CB0884E261
:1022900090E00E94270920E4F22E10E03AE0832E1D
:1022A000912CA12CB12CF9DC10921A0160E082E093
:1022B0000E94D11C0091810120916F013091700129
:1022C0004091710150917201073F44F40F5FCA01C0
:1022D000B901A50194010E942332F6CF0093810138
:1022E00020936F01309370014093710150937201FC
:1022F000073F09F094C0DA01C90180569109A1098C
:10230000B10980399545A105B10508F088C06091F3
:10231000830170918401CB018B569F4F8B3291408A
:1023200008F07DC01F5F153008F47AC085EB92E09D
:102330000E940B330E9450078DE190E00E94270914
:1023400080918301909184010E946D0904DC88E0F2
:1023500088B989E087B980E284B982E02BDB853DCA
:102360009340DCF714B810922E0110922D0182E0F8
:1023700021DB8C018091690190916A0190932E017B
:1023800080932D0182E016DB7C01EE0CFF1C109285
:102390002E0110922D0182E00DDBA0906901B0901A
:1023A0006A01B0922E01A0922D01800F911F8C0125
:1023B0000E191F090E94900786E190E00E942709EC
:1023C00087EB92E00E94F032D82E9501D8010E944E
:1023D000763297010F2C000C440B550B0E944532AE
:1023E00013E01D0D120F612F87EB92E00E94FD326A
:1023F000812F012E000C990B0E946D09ACDB82E04D
:1024000080933E0185DB109237018EEA92E00E94B4
:10241000F032682F81EB92E00E94FD3217C010E08D
:102420000E94900760916F0170917001809171011D
:102430009091720104E026E4409181014DD80E9400
:10244000DA0888E27FDAFA94F1102DCF89E18093DF
:102450002B0180E00E94D42B0E94500783EF90E074
:102460000E9427090E9490078CEA91E00E942709A8
:1024700010921A0182E080933E014ADB03C082E0A1
:10248000C82E14CE2E96E2E10C94A2328091370130
:1024900081110DC08EEA92E00E94F03261E0680F77
:1024A00081EB92E00E94FD3281E080933701089534
:1024B000EF92FF920F931F93CF93DF93D62FE82FC6
:1024C000F0E0E259FD4FE491E8B9E860E7B915B8EA
:1024D000E62FF0E0E559FD4FE491E4B988E8E82EF5
:1024E00083E1F82ECE2FCC0F8D2F58DA8C01C4B992
:1024F0008E159F0510F47801F7CF892BE9F00E9423
:10250000A00789E291E00E942709D80120EA36E875
:1025100041E050E00E947C3228E937EB40E050E097
:102520000E942332DA01C90122E041E467EF87D833
:1025300088E087B988B914B8CDB7DEB7E6E00C9467
:10254000AE32CF93DF93DC019C01261B370BE0E01A
:1025500090E0B901690F711D672F7727920F260F41
:10256000371FBA016E0F711D672F7727E40FEB013C
:10257000CC0FDD1F4C0F5D1F6B3E28F4A217B30775
:1025800040F7CA0102C080E090E0DF91CF9108954A
:10259000A8E1B0E0EEECF2E10C948632582E462E23
:1025A000342EA895E62FF0E0E559FD4F24912C87B5
:1025B000220F2B8B339634913A8BE42FF0E0E559C0
:1025C000FD4F44914983339654915F83E82FF0E0A7
:1025D000E559FD4F2490822D880F8F873396949173
:1025E0009B8398609C8338603A8345B9AC84A42A65
:1025F000A4B897B9EB81E8B9862FD8D99E878D8783
:10260000FC85F4B9842DD2D93C0114B884D915B80D
:10261000A4B8842DCBD96D857E852ADA6C012A81F8
:1026200027B988E088B9398132293D8335B934B971
:10263000852DBCD923DA7C0115B86DD925B8852D37
:10264000B5D91CDA8C0124B8852DB0D917DAB82E8B
:102650009987B801C7010CDA803241E0940730F461
:1026600050E2C51651E0D50608F496C5C00ED11E3D
:10267000ED85FE858E0F9F1FC816D90620F41E8794
:102680000D876B2C798420914E0130916801822F47
:1026900090E0830F911D02974CF0213009F07CC52A
:1026A00090914B0180916501981376C5F981FF0FD8
:1026B000F88FF229FB872D853E852437310508F4F4
:1026C0008AC1C901880F991F44966816790608F0D7
:1026D00082C13C8137B94B8148B98C85588D852B97
:1026E00084B9842D5FD98C01832D64D97C01888DB8
:1026F00085B9842D57D99801295A3D4F2817390794
:1027000008F0AAC088E088B99A8197B9EB85E4B946
:10271000E5B9832D47D988349F4028F085E0809320
:102720001A0182E204C085E080931A0184E280935A
:1027300019011093440100934301B701C801A3D9C3
:1027400090934A01809349019801A0E1B7E20E9469
:102750006732209114013091150140E050E00E9451
:10276000233230934601209345018B89288D822B9B
:1027700084B915B83C8137B94B8148B9832D1AD932
:102780008C01842D0FD9B8017ED99C01909348010A
:1027900080934701909119019F70943079F5409191
:1027A0004501509146016091490170914A01C9016A
:1027B000C8DE0097F9F0588D54B9EA898C81E82B6E
:1027C000E7B9842DEFD88C0188E087B99801A0E1A2
:1027D000B7E20E946732209138013091390140E020
:1027E00050E00E942332A901B801809147019091E5
:1027F0004801A7DE90934401809343018091190121
:102800008F70843009F4BFC488E088B99F81EA8161
:102810009E2B97B924B8FD81F5B9852DC7D88C01B9
:102820002DD99E838D83842DC5D8E0901B01F09017
:102830001C01BC01C80127D99701DC010E94673245
:10284000ED81FE819F0140E050E00E9423323093F1
:1028500044012093430197C488E088B9FA81F7B90D
:102860002B8524B925B9852D9DD88C01832DA2D81F
:102870007C0125B8852D96D8895A9D4F80179107E0
:1028800008F08AC43B8138B94C8147B9832D8AD876
:10289000813D934028F485E080931A0182E304C0CF
:1028A00085E080931A0184E380931901B801C70180
:1028B000EAD89093640180936301C801DFD89C013A
:1028C000A0E1B7E20E94673220911B0130911C0108
:1028D00040E050E00E9423323093600120935F017A
:1028E000F8E0FF2EF8B88A8187B98F85988D892BFB
:1028F00084B985B9852D5ED88C01832D53D8B80154
:10290000C2D89C019093620180936101909119015A
:102910009F70943091F540915F01509160016091FA
:10292000630170916401C9010CDE009711F1E88D1B
:10293000E5B9E4B9FB81F8B9EC812A81E22BE7B96A
:10294000852D30D89BD88C01F7B89C01A0E1B7E267
:102950000E946732209131013091320140E050E015
:102960000E942332A901B801809161019091620116
:10297000E8DD90935E0180935D01809119018F7075
:10298000843009F4D8C1EB813F81E32BE8B94C8155
:10299000342B37B915B85D8154B9852D07D87C0122
:1029A000842D08D89E838D83009114011091150108
:1029B000BC01C70168D89801DC010E946732ED8133
:1029C000FE819F0140E050E00E94233230935E017F
:1029D00020935D01B0C188E088B9FA81F7B925B8C4
:1029E0002B8524B9852D0E94D60C998B888B46D8CF
:1029F00098878F83832D0E94DA0C9A8789874301F9
:102A000034E6830E911C4F815885B30184169506D8
:102A1000D0F4CA0138D88C0120911B0130911C01DF
:102A200040E050E060E871EA83E09CE10E942332DC
:102A3000D8010E947C32E985FA858F0120E030E0E0
:102A4000A901980120C08F8198851DD88C01FD8136
:102A5000F4B9852D0E94D60C998B888B0FD8988756
:102A60008F83832D0E94DA0C9A878987BC01C80165
:102A70000AD89C01A4E6B0E00E946732E985FA8595
:102A80009F0140E050E00E94233269017A0114B8AE
:102A900015B8FB81F8B92C8127B981E00E94A20CFE
:102AA000A4B8842D0E94D60CBC84388DB32A8F35EF
:102AB0009D4008F446C1B4B8842D0E94D20C8C010C
:102AC000832D0E94DA0C9D8B8C8B852D0E94DA0C55
:102AD0009F8B8E8B8C899D89813D974008F4B7C070
:102AE00084E080931A018DE08093190160167106CD
:102AF00030F49801261937093E832D8302C01E83C6
:102B00000D838090140190901501A12CB12C60E8E8
:102B100071EA83E09CE1A50194010E942332AD811A
:102B2000BE810E947C32EC89FD899F0140E050E02B
:102B30000E94233280916801882369F080915901B5
:102B400090915A01A0915B01B0915C0182179307AB
:102B5000A407B50708F52093590130935A01409313
:102B60005B0150935C019801A0E1B7E20E946732DB
:102B7000A50194010E9423323093600120935F01EC
:102B80006C897D898E899F890E94430D90935E0197
:102B900080935D0181E001C080E040915901509136
:102BA0005A0160915B0170915C014C155D056E05E9
:102BB0007F0538F5C0925901D0925A01E0925B012D
:102BC000F0925C0169857A85888999890E94430D14
:102BD00090935E0180935D012F813885A0E1B7E27B
:102BE0000E94673220911B0130911C0140E050E0AF
:102BF0000E942332205F384D3093600120935F01A3
:102C000003C0882309F4B1C3C0901401D09015010A
:102C1000E12CF12C9301A0E1B7E20E946732A701F9
:102C200096010E94233230936201209361012D8529
:102C30003E85A0E1B7E20E946732A70196010E949B
:102C40002332309364012093630181E08EC3F1E667
:102C50006F16710408F075C0013D27E0120708F4F3
:102C600070C085E080931A0182E180931901C80148
:102C700086509F4F4E895F898417950720F483E122
:102C80008093190119C080911401909115019E83C0
:102C90008D83B8018E899F890E94430D2D813E81CD
:102CA000DC010E946732980140E050E00E9423322C
:102CB00030935E0120935D019A899770E92E832DF0
:102CC000806480937C00EBE0FE2EE1E0F0E0FE8388
:102CD000ED830FEF13E0A89561E089817AD5B4B850
:102CE00086B18E21E9F3FC85F4B980917A00806485
:102CF00080937A0080917A0086FDFCCF80917800E5
:102D0000909179009801281B390B4D815E81420F0B
:102D1000531F5E834D83FA94F110DDCFCA01880FF3
:102D2000991F880F991F69E070E00E940F3270931D
:102D3000640160936301809168018F5F80936801F3
:102D400084CFB4B8588D55B9842D0E94D60C6C012F
:102D5000832D0E94DA0C98878F830E943E0D9A87FC
:102D600089878C149D04A8F4B301C6010E94430D09
:102D70008C01209114013091150140E050E060E891
:102D800071EA83E09CE10E942332D8010E947C32E8
:102D90001FC0A4B8F981F5B9842D0E94D60C6C012E
:102DA000832D0E94DA0C98878F830E943E0D9A87AC
:102DB0008987C6016C147D0410F48619970969850A
:102DC0007A850E94430D9C01A4E6B0E00E94673220
:102DD000E985FA859F0140E050E00E9423324901D5
:102DE0005A01FA81F7B988E088B92D8124B925B94B
:102DF000852D0E94D60C8C01832D0E94DA0C9A87B7
:102E00008987842D0E94DA0C7C01003331E113079D
:102E100008F0BFC125B8852D0E94D60C998B888BF0
:102E200024B8852D0E94D60C9D8B8C8B15B881E023
:102E30000E94A20C25B8852D0E94D60C4C895D8974
:102E40004034564008F05DC08133914108F459C0C8
:102E5000C8018A569F4F288939892817390708F0F1
:102E600050C086E080931A0180914E018F5F80935D
:102E70004E01B70189859A850E94430D90934401C4
:102E800080934301B701C8010E94430D90934A010A
:102E90008093490114B815B83A8938B981E00E9485
:102EA000A20C24B8852D0E94D60C853F910508F010
:102EB0006AC24D8144B9832D0E94D60C813D934056
:102EC00008F461C2852D0E94DA0C8D3D924008F411
:102ED0005AC224B8852D0E94D60C8D3D924008F42C
:102EE00052C225B881E00E94A20C15B8852D0E941F
:102EF000D60C853F910508F046C287E080931A0101
:102F000042C22A8127B9398134B935B981E00E949A
:102F1000A20C4B8544B945B9852D0E94D60C8C0175
:102F20000E943E0D998B888B832D0E94DA0C9E8324
:102F30008D830E943E0D9A878987842D0E94DA0C2A
:102F40007C0189859A858E3F994008F4B2C084E05F
:102F500080931A018CE080931901B30188899989C3
:102F60000E94430D8C0120911B0130911C0140E017
:102F700050E060E871EA83E09CE10E942332D801CE
:102F80000E947C32E985FA859F0140E050E00E9472
:102F9000233280914E01882369F080913F01909106
:102FA0004001A0914101B091420182179307A4070B
:102FB000B50728F520933F0130934001409341012C
:102FC00050934201B7018D819E810E94430D9093E1
:102FD00044018093430128893989A0E1B7E20E9426
:102FE000673220911B0130911C0140E050E00E94AB
:102FF0002332309346012093450181E001C080E0F7
:1030000040913F0150914001609141017091420116
:10301000481559056A057B0528F580923F01909275
:103020004001A0924101B0924201B6018F81988582
:103030000E94430D90934401809343019601A0E1C7
:10304000B7E20E946732209114013091150140E0EF
:1030500050E00E942332205F384D30934601209388
:10306000450103C0882309F48FC19301A0E1B7E2B1
:103070000E946732209114013091150140E050E028
:103080000E94233230934801209347012D853E85CD
:10309000A0E1B7E20E94673220911B0130911C0130
:1030A00040E050E00E94233230934A0120934901CE
:1030B0006AC1F1E66F16710408F06BC0288939897E
:1030C00029343D4008F465C085E080931A0182E010
:1030D00080931901C70186509F4F8017910720F4F4
:1030E00083E08093190117C0C0901B01D0901C0190
:1030F000B701C8010E94430D9601DC010E946732AE
:10310000E889F9899F0140E050E00E942332309322
:103110004401209343010B810770832D80648093C9
:103120007C001BE021E030E03E832D83A89560E029
:1031300089814FD33B8534B935B986B18023E9F70E
:1031400024B880917A00806480937A0080917A001C
:1031500086FDFCCF80917800909179004D815E8151
:10316000480F591F5E834D83115001F7CA01880F24
:10317000991F880F991F69E070E00E940F327093C9
:103180004A016093490180914E018F5F80934E0107
:10319000FAC088E087B988B914B815B888E087B94B
:1031A00057EC651651E0750608F4D0C088B98F85D4
:1031B00084B998EC9D83EC81FA81EF2BEF832F810A
:1031C00027B981E00E94A20C3A8137B9852D0E946F
:1031D000DA0C429728F04D8141504D834111EFCFD9
:1031E0005F8554B955B961E08981F3D2852D0E947C
:1031F000D60C6C018B8984B915B89C8197B9EB8189
:10320000E8B960E08981E5D2842D0E94D60C0E9445
:103210003E0D9E838D83FC85F4B9842D0E94DA0CCB
:103220008C01852D0E94D60CB8010E94430D7C01B3
:10323000842D0E94DA0C8C01852D0E94D60CB801D9
:103240000E94430D97012C5E3F4F2817390708F461
:1032500080C088E088B92A8127B924B825B861E000
:103260008981B7D2842D0E94DA0C8C01852D0E94B1
:10327000D60CB8010E94430D8C01E816F90658F4EB
:103280003F8534B935B9852D0E94D60C9C01CD827D
:10329000DE82780110C04B8944B915B85C8157B9FA
:1032A0008B8188B960E0898194D2842D0E94D60CEC
:1032B0000E943E0D9C0198EEE91693E0F90630F469
:1032C000C70164E670E00E940F3206C0B70154E007
:1032D000769567955A95E1F7C7018759910989381D
:1032E0009141A0F52E153F0588F58D819E8143E023
:1032F000969587954A95E1F7893C910510F088EC01
:1033000090E02D813E81820F931F8E159F05F0F472
:1033100062177307D8F480911A01833018F483E0A0
:1033200080931A0120911801822F90E0FC01EB5745
:10333000FE4F50824682880F991FFC01EF56FE4FC8
:10334000F182E0822F5F2093180103C0642D852D48
:1033500029D088E087B988B914B815B88EE20E94E0
:1033600081086896E2E10C94A232909168019F5F17
:1033700090936801882369F3309265014092660159
:1033800050926701E6CF81E090914E019F5F90934C
:103390004E018823F1F230924B0150924C01409241
:1033A0004D01D7CFA0E0B0E0E8EDF9E10C94883210
:1033B000A895462F50E0FA01E559FD4F94903396B9
:1033C0009491A82FB0E0FD01E559FD4FE4903396AC
:1033D000F4907091680120914E0130E0270F311D6B
:1033E000232B09F0F1C1A89520911E0130911F01F6
:1033F000220F331F220F331F3093300120932F01F0
:103400002091690130916A01220F331F220F331F6F
:1034100030932E0120932D012EEB20932B01C09190
:103420001801E5E8F1E070E04A0F5B1F7C1759F0E6
:103430002191A58130E02A0F311D2417350709F4A9
:1034400056C07F5FF3CFD62FC82F88E088B9E92F09
:10345000E860E7B9E4B8E5B8B8E1BB2EC12CD12CDF
:103460008D2F0E94D60C782E692E8C2F0E94DA0C9C
:103470008C018C199D0997FF03C091958195910945
:10348000039734F0A895BA946801B110E9CF2FC022
:10349000EE0C15B8E4B88C2F0E94D60C813591053E
:1034A00030F5E5B88C2F0E94D60C6C018F2D88600A
:1034B00087B9F8B815B894B8A8E18A2EA12CB12C18
:1034C0008C2F0E94D60C582E492E8D2F0E94DA0C7C
:1034D0007C018A199B0997FF03C0919581959109F9
:1034E0000397CCF0A8958A9457018110E9CF809179
:1034F0001E0190911F019093300180932F018091C4
:10350000690190916A0190932E0180932D0189E1C8
:1035100080932B0159C1990C94B88D2F0E94D60C21
:103520005C01003C84E4180730F425E8C21621E071
:10353000D206E8F605C080EBC8168DE4D806B8F6CA
:1035400024EAE21622E0F20608F06CC088E9A81628
:10355000B10468F2C6010E943E0DAC019601A8E9D3
:10356000B7EB0E9467329A0140E050E00E9423329C
:1035700029013A01C5010E943E0D9C01A8E9B7EB63
:103580000E946732850120E030E0A90198010E9485
:10359000233288E7C8168FE0D80680F4D301C20131
:1035A000F2E0880F991FAA1FBB1FFA95D1F7BC0143
:1035B000CD01620F731F841F951F14C088E7A816E2
:1035C0008FE0B806B0F4DA01C901E2E0880F991F74
:1035D000AA1FBB1FEA95D1F7BC01CD01640D751D73
:1035E000861D971D25E030E040E050E00E94233228
:1035F0000CC0D301C201820F931FA41FB51F9C01F1
:10360000AD015695479537952795A4E6B0E00E9401
:103610007C322B013C012CEA420E2DE0521E611C33
:10362000711C79C0672D762D0617170708F4B801AD
:10363000C52CD42CCE14DF0408F467010617170735
:1036400008F48B01A0901B01B0901C01C8010E94DE
:10365000430D9501DC010E9467322B013C01C8013A
:103660000E943E0D9C0140E050E0C301B2010E9467
:10367000233229013A01CE14DF0408F47601A09028
:103680001401B0901501B701C6010E94430D9501C8
:10369000DC010E9467324701A12CB12CA5019401E5
:1036A0000E94233208378FE0180780F4D301C2014B
:1036B00062E0880F991FAA1FBB1F6A95D1F7BC0152
:1036C000CD01620F731F841F951F14C088E7E81691
:1036D0008FE0F806C0F4DA01C90132E0880F991FC3
:1036E000AA1FBB1F3A95D1F7BC01CD01640D751D12
:1036F000861D971D25E030E040E050E00E94233217
:1037000029013A0108C0420E531E641E751E7694AC
:1037100067945794479410911A01143008F0E7CE3B
:10372000C1500C2F0D0F202F30E0E901CD5ADE4F94
:103730008881220F331F220F331FF901E256FE4FFB
:103740008823D9F1C080D180E280F380A301920167
:103750002C193D094E095F0957FF07C05095409548
:10376000309521953F4F4F4F5F4FAAE0B0E00E9448
:103770007C3224E6C20ED11CE11CF11CA70196018B
:10378000240D351D461D571D0E942332232B242B4B
:10379000252B09F0ACCE133019F081E080931A018B
:1037A00082E0888380916B01E82FF0E0EA5AFE4FB7
:1037B00000838F5F80936B019ACE40825182628238
:1037C000738281E0888393CECDB7DEB7E0E10C94BD
:1037D000A432CF93C82FC09595B160FF02C0982B3B
:1037E00001C09C2395B994B1892B84B982E00E94D1
:1037F000A20C84B18C2384B985B1C823C5B9CF91FB
:103800000895A0E0B0E0E7E0FCE10C948E321AE00D
:1038100008E08FE3C82E99E0D92E07B908B915B88A
:10382000C4B880E00E94D60C7C0181E00E94DA0CD2
:10383000EC0182E00E94DA0C9C0180911A0189302F
:1038400081F488E087B914B8F0920601E09205018E
:10385000D0930801C093070130930A012093090116
:103860005BC084E0E816F10440F4C430D10560F494
:103870002430310530F399E00BC088EEE81683E080
:10388000F80610F098E001C099E0C83ED34008F473
:103890009260283E334008F4946097B9C0E0D0E0CD
:1038A000A89580E00E94CE0C5C0181E00E94DA0CB9
:1038B0007C0182E00E94DA0C24E1A21625E0B20627
:1038C00008F4389A24E1E21625E0F20608F4399A61
:1038D000843125E0920708F43A9A26E0A216B10452
:1038E00030F426E0E216F10410F4069738F0219641
:1038F000C43F81E0D807A1F6D0921A01E12CF12C47
:10390000EC16FD0631F00E94910C2FEFE21AF20A3C
:10391000F7CF115009F081CFCDB7DEB7EAE00C94B4
:10392000AA32CF92DF92EF92FF92CF9320916F0154
:10393000309170014091710150917201C0918101EB
:103940008AE0C82ED12CE12CF12C8C2FCF5F213AAC
:1039500096E8390791E04907510538F0CA01B901E5
:10396000A70196010E942332F0CF80938101A0919C
:103970002F01B09130010E947C3228E833E140E011
:1039800050E00E94233220936F01309370014093E6
:10399000710150937201CF91FF90EF90DF90CF9023
:1039A0000895A0E0B0E0E7EDFCE10C948C32982F94
:1039B000990F980F2FEF260F920F90935001E82F39
:1039C000F0E0E559FD4F1491262F30E0F901E5595B
:1039D000FD4FF490F901E259FD4FD49190911A01F5
:1039E000913009F497C220911801A5E8B1E0FD01DA
:1039F00090E0921791F0368163130BC030818313EE
:103A000008C01C964D915C911D974C3D554008F4A3
:103A100081C29F5F31961296ECCF062FC82FD860D7
:103A200010927C0110927B0181EF809381011092B2
:103A30006F01109270011092710110927201E1DE1B
:103A400088E088B9D7B9F4B8F5B88C2F0E94DA0CA1
:103A50005C01802F0E94DA0CA81AB90A14B81092DF
:103A60005201109251018091510190915201843F75
:103A7000914008F0AAC015B914B90E948B0C14B873
:103A800015B80E94920CA8958C2F0E94DA0C7C012C
:103A9000EA18FB0880915101909152018E379105EF
:103AA00028F08BE4E816F1040CF48FC080915101EA
:103AB000909152012DE2E21621E0F20634F40196D3
:103AC0009093520180935101CECF892B09F0A4C16C
:103AD00085E1E81685E0F8060CF49EC192DE15B883
:103AE0008FE087B988E088B9F12EFF0CF4B880E444
:103AF00080937B0084E580BF8C2F806480937C0062
:103B000086E180937A000E94950C109252011092E7
:103B1000510110928000109285001092840087E27B
:103B200086BB81E280936F0081E080936C01F5B8E1
:103B300090911A0180938100953009F04CC081E08A
:103B400090E00C2E01C0880F0A94EAF780958F70E0
:103B500087B9F89483B7817F83BF80916C018823F4
:103B600089F083B7816083BF7894889583B78E7F0F
:103B700083BFF894A89580915101909152018034AF
:103B8000964059F7789410928100E0908600F0906A
:103B9000870010926F0086E980937A0014B815B8F8
:103BA0008C2F0E94DA0C2091330130913401821B5A
:103BB000930B0C9690938401809383018091510123
:103BC000909152018032934040F088E087B988B9E3
:103BD00014B815B89FC1D7B9BCCF8091510190914D
:103BE000520190937A0180937901F0927801E092EA
:103BF000770184EF8093810180915101909152016E
:103C000082349105C8F060917701709178018091BC
:103C1000790190917A0124E630E040E050E00E9482
:103C200023322093770130937801409379015093A8
:103C30007A0186EF80938101A0916D01B0916E01B0
:103C400020917701309178014091790150917A016A
:103C50000E947C3220E233E040E050E00E942332B8
:103C600020937701309378014093790150937A0142
:103C700020936F0130937001409371015093720152
:103C800050DE80918101843F09F071C0C0906F01C6
:103C9000D0907001E0907101F090720180EAC81636
:103CA0008FE0D806E104F104C0F4A70196012C547A
:103CB0003F4F4F4F5F4F60EA7FE080E090E00E940F
:103CC0002332C20ED31EE41EF51EC0926F01D092A5
:103CD0007001E0927101F0927201C0906F01D0907A
:103CE0007001E0907101F0907201C114D10421E0E3
:103CF000E206F10428F4D092AF01C092AE0106C0F2
:103D000081E090E09093AF018093AE0180915001EB
:103D100090E082559D4F0E94F03290E0A0E0B0E02C
:103D2000B701A6018C159D05AE05BF0568F4481BBB
:103D3000590B6A0B7B0B40936F015093700160939A
:103D400071017093720113C04C5E5F4F6F4F7F4FD4
:103D5000481759076A077B0710F40E944612109211
:103D60006F0110927001109271011092720114B9DA
:103D700080916F0190917001A0917101B0917201D9
:103D80004997A105B10508F420CFC12CD12C809111
:103D90001801882329F080911A01853009F015CF88
:103DA00088E080931A018091810190918201981797
:103DB000C4F089130ACF80906F0190907001A09099
:103DC0007101B09072014091730150917401609142
:103DD000750170917601481559056A057B0508F053
:103DE000F4CE40916F01509170016091710170911A
:103DF0007201409373015093740160937501709345
:103E0000760180938201D0927E01C0927D01009361
:103E10007F01C0938001D9CEC701C12CD12C209144
:103E20005101309152012C153D0560F00E948C0C1F
:103E30008C2F0E94DA0C8A199B09A8952FEFC21AC1
:103E4000D20AEDCF5701A81AB90A1A141B049CF420
:103E500039ECA316B1040CF0B8CE28EE33E0D5014E
:103E60000E94763297010F2C000C440B550B0E94D8
:103E70002332690102C0C12CD12C80915101909153
:103E800052010196A0E0B0E0809377019093780111
:103E9000A0937901B0937A01C7018A0D9B1D87D049
:103EA00020917701309178014091790150917A0108
:103EB000DC010E947C3260937701709378018093DB
:103EC000790190937A0160936F01709370018093F0
:103ED00071019093720187EF8093810122DD20911F
:103EE0006F01309170014091710150917201A8EE03
:103EF000B3E00E947C3224E630E040E050E00E94D3
:103F0000233220936F0130937001409371015093DD
:103F100072013DCFCDB7DEB7ECE00C94A8321F9212
:103F20000F920FB60F9211248F939F93B59904C0EF
:103F300080916C01811109C0B59B10C080918600F1
:103F4000909187008A3F910548F4809151019091AA
:103F50005201019690935201809351019F918F914C
:103F60000F900FBE0F901F9018951F920F920FB6D3
:103F70000F9211248F939F9310926C01B09B10C0ED
:103F800080918600909187008A3F910548F4809146
:103F900051019091520101969093520180935101E9
:103FA0009F918F910F900FBE0F901F9018950F92B9
:103FB00021E08C32920710F48CE291E08C52914017
:103FC00069E170E00E940F3299E16B3210F0982F96
:103FD0006BE2981BE3E3F2E0E60FF11DE60FF11D43
:103FE0009F93CF010E94F032482F3196CF010E945B
:103FF000F032582F3196CF010E94F032282F31969F
:10400000CF010E94F032382F6F91421B530B649FF7
:10401000C001659F900D11240C9669E170E00E942B
:104020000F32620F731FCB010F900895A0E0B0E034
:10403000ECE1F0E20C948C3288E893E190931F015C
:1040400080931E019093300180932F018EEB80931B
:104050002B01C8E0C8B988E187B90E949A0CC7B99A
:1040600084E00E94D60CAC018B5C9840833F914069
:10407000A0F481E080933A0120912F01309130012A
:10408000AFEBB9E00E9467329A0140E050E00E9435
:10409000233230931F0120931E0180911E019091C5
:1040A0001F019093300180932F018EE00E94DA0C63
:1040B0008EE00E94D60C90933401809333010E94CD
:1040C000AB0D9FDB88E0F82EF8B8C9E0C7B985E1F1
:1040D00085B9D1E0D4B980E00E94D60C8C019AE079
:1040E000D92ED7B824E0B22EB4B881E00E94D60C05
:1040F000080F191F3CE0E32EE7B840E1C42EC4B816
:1041000082E00E94D60C080F191F15B8C8B9C7B9AC
:10411000D4B980E00E94D60C0E943E0DEC01D8B8C4
:10412000D7B8B4B881E00E94D60C0E943E0DC80FEB
:10413000D91FE8B8E7B8C4B882E00E94D60C0E9444
:104140003E0DC80FD91FF7B8F8B814B820912F0149
:10415000309130016901CC0CDD1CC20ED31EC01A97
:10416000D10ACC1ADD0AE12CF12C9801A0E9BAE1C0
:104170000E946732A70196010E94233249015A0129
:1041800030933901209338019E01A0E9BAE10E94E1
:104190006732A70196010E942332309332012093A7
:1041A00031012057354E30931C0120931B0180E7CD
:1041B000881A85EE980A909215018092140189E17F
:1041C00080932B01CDB7DEB7ECE00C94A832CF92F0
:1041D000DF92EF92FF920F93CF93DF93F82ED62FBB
:1041E000C42F0E94CB0886E091E00E942709C9D124
:1041F0006D2F8F2D0E94502AC090B201D090B30134
:10420000E090B401F090B5018091020187FD05C0F6
:10421000C114D104E104F10421F082E091E00E9494
:1042200027098D2F0E94CB08C114D104E104F104A9
:10423000A1F10E94CE08809156010E94E309CC238F
:1042400009F47EC080913B018F3028F490E08E54B9
:104250009D4F0E94270980E00E94FB08CD28CE28B0
:10426000CF2801F16091B2017091B3018091B40146
:104270009091B50103E028E447EF0E946C0A85E1C4
:1042800091E00E94270985EC92E00E94F83223E039
:1042900046E464EF0E941F0B1FC0C111D3CF80E022
:1042A0000E94FB08809156010E94E309809102015F
:1042B0008E3F94F48DE291E00E94270960910B01FA
:1042C00070910C0180910D0190910E0103E028E4A2
:1042D000409102010E946C0A8091AA019091AB0169
:1042E000A091AC01B091AD01892B8A2B8B2BF1F001
:1042F00080E00E94FB086091AA017091AB0180915F
:10430000AC019091AD0104E028E440E00E946C0A09
:1043100080E191E00E94270923E040E26FEF809165
:10432000B0019091B1010E941F0B07C080E00E9474
:10433000E00880913E01811107C00E94DA0804C0A4
:1043400080E00E94FB088ECFDF91CF910F91FF900C
:10435000EF90DF90CF90089584E890E0B0D50E9470
:104360004D0E60E082E01ED862E080E01BD80E9423
:10437000490780916B01882329F041E062E080E0E9
:1043800026DF12C084E890E00E9427098CEB92E0BF
:104390000E9427090E9490078FE30E94810880E015
:1043A0000E94E0080E94DA0888EE93E00E944C0D1B
:1043B0008823A9F20C9450070895EF92FF920F936F
:1043C0001F93CF93DF93182F0E94490780917F019D
:1043D0000E94CB0889E491E00E942709B2D4609141
:1043E0007F018091800105D3EC0190937C01809343
:1043F0007B01E0907D01F0907E01CA3F8FEFD807EE
:1044000020F487E091E00E942709809180010E94BA
:10441000CB08112359F090913B018FE0891B0E943A
:10442000D10889E790E00E94270902C00E94DA08BB
:104430000E949007609173017091740180917501E1
:104440009091760104E026E4409182010E946C0A7A
:10445000CA3FDF4F68F488E391E00E94270922E019
:1044600044E06EEF80917B0190917C010E941F0BD4
:104470000E94DA080E949807E114F10469F081E3D0
:1044800091E00E94270922E045E26FEF80917D01D3
:1044900090917E010E941F0B0E94DA08CDB7DEB713
:1044A000E6E00C94AE321F93CF93DF93C8E0D2EFD7
:1044B0001FE00E944D0E60E082E073DAC0931A01A3
:1044C00080918101843FD9F480916F0190917001B6
:1044D000A0917101B091720184369105A105B105D9
:1044E00070F440E060E082E05CD560936F0170930F
:1044F00070018093710190937201D093810180913A
:104500008101823FACF08093820180916F01909194
:104510007001A0917101B091720180937301909329
:104520007401A0937501B093760181E046DF1CC051
:104530000E9449078DE790E00E94270980913B0186
:10454000912F981B892F0E94D10889E790E00E9443
:1045500027090E9490078FE30E9481080E94DA08D1
:104560000E9498070E94DA0888EE93E00E944C0DA2
:10457000882309F49ECF0E945007DF91CF911F91AD
:104580000895A4E1B0E0E7ECF2E20C94863282E018
:104590008093020180911A01813009F026C2809136
:1045A0006B01813009F021C20091560124E0029F85
:1045B000F0011124E256FE4F80819181A281B381E6
:1045C000893032E59307A105B10508F00EC24C0110
:1045D00010E0802F123028F40E94D909582E492E5D
:1045E00003C00E94D9092C01E42DF0E0E259FD4FEF
:1045F0002490852D90E0FC01E559FD4FE49115B81C
:1046000028E028B930EF83169104B8F410FD15C0E6
:10461000A0901401B090150120E9A21A2AE1B20A73
:1046200021E030E0052C02C0220F331F0A94E2F78C
:10463000C9018860822987B908C0E4B9822D8860E1
:1046400087B9A0901401B0901501F4E13F2E852D9B
:104650000E94D20C3C01842D0E94DA0C34E06316D7
:10466000710410F4049718F03A943110F0CF80E4FC
:1046700080937B0094E590BF852D806480937C00BF
:1046800026E120937A00E12CF12C10928000109208
:1046900085001092840087E286BB0E94950C312F22
:1046A0003170332E10FD05C081E88093810028B859
:1046B00008C028B80E949E0C80E286BB81E88093E7
:1046C000810086B385FF13C098E098B910928100ED
:1046D00020E226BB2091860030918700690140913D
:1046E0008400509185002417350770F014C080FFB6
:1046F000E8CF31E036BBA89597012F5F3F4F790196
:1047000020353105F1F6E0CF80FF05C081E086BBA2
:104710009FEFE91AF90A86E980937A00E4E12E2EE8
:10472000852D0E94D20C3C01842D0E94DA0C24E0DD
:104730006216710410F4049718F02A942110F0CF37
:104740004090380150903901480C591C4A0C5B1CB0
:10475000209116013091170180E9A8168AE1B80668
:10476000B0F491EEC916D104E104F10438F4C601A5
:1047700065E070E00E940F32645101C069E1285287
:104780003109261B310967FD339586E009C0C20156
:1047900060EB76E30E940F3287E0860F285D3F4F83
:1047A00090E0A0E0B0E08C159D05AE05BF0528F4B3
:1047B000C81AD90AEA0AFB0A03C0C12CD12C760117
:1047C000332029F082E2C80ED11CE11CF11C90E5D7
:1047D000E916F10418F0C12CD12C76018BE0C81633
:1047E000D104E104F10428F091E0C91AD108E108EC
:1047F000F10840912F0150913001612C712CA8EEED
:10480000B3E00E946732698B7A8B8B8B9C8B95010E
:10481000DA010E946732A30192010E9423324427E9
:10482000552769897A898B899C890E942332C9011D
:104830000E94030EFC01A3019201C701B6010E9470
:10484000F4312B013C01CF01A0E0B0E073E0880F10
:10485000991FAA1FBB1F7A95D1F7BC01CD016B5FD1
:104860007F4F8F4F9F4F2AE030E040E050E00E94A2
:104870002332C301B2010E942332E12FF0E0A1E014
:10488000B0E0AC0FBD1F84E0189FA00DB11D112436
:104890002D933D934D935C931397311016C09CE07C
:1048A000C916D104E104F10480F03196EE0FFF1F28
:1048B000EE0FFF1F81E090E08C0F9D1FE80FF91FA6
:1048C00020833183428353831F5FA8951F5F143079
:1048D00008F47FCE88E088B984E00E94A20C91E0C1
:1048E0000D811E812F81388549815A816B817C81A0
:1048F000401751076207730708F090E00D851E8589
:104900002F85388949855A856B857C8540175107E5
:104910006207730710F483E001C082E0E92FF0E042
:10492000EE0FFF1FEE0FFF1F21E030E02C0F3D1FA9
:10493000E20FF31FD90134E0839FA00DB11D1124B4
:104940000D911D912D913C91408151816281738126
:10495000041715072607370708F0892FE1E0F0E074
:10496000EC0FFD1F94E0899FE00DF11D11244081A3
:1049700051816281738140930B0150930C016093CC
:104980000D0170930E0180FD08C020EF8216910486
:1049900020F48BEF8093020117C08CEF809302010B
:1049A000CB01BA016B5F7F4F8F4F9F4F2AE030E002
:1049B00040E050E00E94233220930B0130930C0121
:1049C00040930D0150930E0180910B0190910C01C9
:1049D000A0910D01B0910E01892B8A2B8B2B11F424
:1049E0001092020188E087B914B86496E2E10C9451
:1049F000A232AEE1B0E0EFEFF4E20C948632662E24
:104A0000B82E860F898320911A01283059F52091FC
:104A1000730130917401409175015091760157FDF9
:104A200015C01091820109C0CA01B9012AE0312DD7
:104A3000412D512D0E9423321F5F173FACF391F49B
:104A4000243160E036074105510518F48FEF9FEFE0
:104A500045C1173F39F480E028178DE73807410535
:104A6000410510F020E03DE72C8B3D8B26EDA22E7A
:104A7000EEE6F2E0E60DF11D859188608E87EEE6A8
:104A8000F2E0EB0DF11D859188608F87EBE6F2E097
:104A9000E60DF11D7590EBE6F2E0EB0DF11DC59012
:104AA00090EC692AB92A81E0E82EF12C012D112D14
:104AB0008E831F82188619861A861B861C861D8681
:104AC000188E198E1B8E1A8E0E94011C88E088B9E0
:104AD00060927C000E94960C3F8537B975B874B817
:104AE00052E05A95F1F70000000014B815B8DD2423
:104AF0003E8537B975B874B860927C00A895A092CD
:104B00007A0080917A0086FDFCCF2090780030906A
:104B10007900B0927C004C2DE5D020917800309146
:104B20007900288B398B3F8537B9C5B8C4B8A895AB
:104B3000B0927C00A0927A0080917A0086FDFCCF32
:104B4000609178007091790060927C00472DCAD006
:104B5000409178005091790014B8CB01820D931DDB
:104B6000E80EF91E011D111DEA82FB820C831D83D4
:104B700088899989840F951F2E813F816885798561
:104B8000280F391F611D711D2E833F836887798728
:104B900022E32417150650F075B874B80E94A00CD3
:104BA00014B815B8888D8395888F07C0483E73E088
:104BB000570718F08A8D83958A8F888999892817D5
:104BC000190660F03E8537B9C5B8C4B80E94A00C7C
:104BD00014B815B8898D8395898F07C0883E73E016
:104BE000970718F08B8D83958B8FD3945D2D5F3F46
:104BF00049F05F3731F45C2D550FC50E572D550F19
:104C0000750E76CF4090380150903901440C551CF8
:104C10009201E4E0240D351DEA95E1F729015701E1
:104C200068016E807F808884998420911A012830E1
:104C3000C1F46C897D89812D912D65507040804033
:104C400090409B01AC010E94F4319B01AC0160E7F4
:104C500079E786E190E00E942332621A730A840A9F
:104C6000950AA614B704C804D90428F46A187B0866
:104C70008C089D0803C0662477244301B20180E0BC
:104C800090E09301A4010E94F4319501A6010E94D5
:104C900023328EE892E07981870F911D0E94F032D5
:104CA000682EC90160E170E00E940F32260F371FA5
:104CB000C9016816190618F4861991090FC08C5E8F
:104CC0009F4F8615910540F48C899D89843981E137
:104CD000980710F00E944612812D912D6E96E2E108
:104CE0000C94A232109281001092800010926F00FA
:104CF00010928B0010928A0057E056BB5FEF5093E2
:104D000085005093840055E050937B0056EB509300
:104D10007A0051E05093810058E25A95F1F7000073
:104D200045B944B955E05A95F1F7000014B815B8E3
:104D30001092810080917A0084FFFCCF80937A00EA
:104D40000895A0E0B0E0E7EAF6E20C948C3280919E
:104D50007D0190917E01892B09F09EC0E0917F0139
:104D6000F0E0E259FD4FD491D860E0918001F0E08D
:104D7000E559FD4FC4910E94011C88E088B915B81F
:104D8000D7B9C4B9809180010E94DA0C8C01D0910E
:104D900082018CE08D0F843008F07EC08091730119
:104DA00090917401A0917501B0917601D15F2AE0D4
:104DB000822E912CA12CB12CBC01CD016B5F7F4FB9
:104DC0008F4F9F4FA50194010E94233269017A0100
:104DD000DA01C901DF5FD73079F729E8C21623E18C
:104DE000D206E104F10408F057C0059708F454C056
:104DF000C5B9C4B9C0E0D0E0CC15DD0520F40E94EF
:104E00009C0C2296F9CF14B815B8A89585E080932C
:104E10002B01809180010E94DA0C0817190720F4F9
:104E2000EC01C01BD10B02C0C0E0D0E0A12CB12C22
:104E3000AC14BD0430F40E949C0C8FEFA81AB80A81
:104E4000F7CF809180010E94DA0C29E120932B0199
:104E5000A8950817190718F4801B910B02C080E071
:104E600090E08C179D0788F49E01281B390B69F090
:104E7000A4EFB1E00E9467329E0140E050E00E9442
:104E8000233230937E0120937D010E94011C88E033
:104E900087B988B914B815B8CDB7DEB7ECE00C9473
:104EA000A8321F920F920FB60F9211248F9386E0B3
:104EB00085BD8F910F900FBE0F901F901895CF93C7
:104EC000DF93EC010E945007CE010E942709C4E63F
:104ED00082E00E94A20C4F9902C0C150C9F70E9403
:104EE0009007DF91CF91089508958F929F92AF928E
:104EF000BF92CF92DF92EF92FF92FC014C01A12C66
:104F0000B12C7401DD24CC244F2F55279F01DF01E4
:104F10000E9467329C013695279536952795C901E1
:104F20009695879596958795BC0176956795649F2C
:104F3000D001659FB00D749FB00D1124BF01729513
:104F400062956F7067277F706727460F571FE40FC2
:104F5000F51F281B390BA90160E070E04E0F5F1FA1
:104F6000611D711DCD0123E0969587952A95E1F786
:104F7000A81BB90B9A01AB012A0F3B1F411D511D04
:104F8000C501B4010E94F4316C0D7D1D8E1D9F1D65
:104F9000FF90EF90DF90CF90BF90AF909F908F9059
:104FA0000895A3E0B2E0E7EDF7E20C948632182F03
:104FB000CD5FDD4F6883C350D240CF5FDD4F488364
:104FC000C150D2400E94011CE12FF0E0E559FD4F95
:104FD000F490BF2CBB0CCD5FDD4F2881C350D24075
:104FE000E22FF0E0E259FD4FE491E860E7B915B82F
:104FF000F4B8812F806480937C000E94960CCF5F70
:10500000DD4F3881C150D2403170CE5FDD4F3883E3
:10501000C250D240CF5FDD4F4881C150D24040FDE9
:1050200002C0AB2C01C0AF2CE0E2DE2E80E090E0AD
:10503000CF2CEA2C0B2D2A2D44E7BE016F5F7F4F4A
:105040000E943E00DA9480E490E0D110F1CF14B8D1
:105050001E0157E4250E311C73E2472E512C612CA2
:10506000712CC12CD12C7601812C912C5401CE5F56
:10507000DD4F8881C250D240F101882341F0808108
:10508000918120E030E8281B390BC90102C08081E2
:1050900091812BDF9C0140E050E0820E931EA41E04
:1050A000B51EC301B2010E94F431C60ED71EE81E20
:1050B000F91EFFEF4F1A5F0A6F0A7F0A22E0220EE5
:1050C000311C34E7431651046104710481F6C501B3
:1050D000B40121E530E040E050E00E942332ABEB28
:1050E000B7E10E947C32A7019601261B370B480BC3
:1050F000590B64E056954795379527956A95D1F7F2
:1051000060EE7DEC81EC9FE80E94233269017A0118
:10511000CF5FDD4F3881C150D24031FD20C0812F9B
:10512000880F180FCD5FDD4F8880C350D2408A941E
:10513000180D812F90E0CE5FDD4F4881C250D240E4
:10514000880F991F442319F08E569D4F02C0805638
:105150009D4F0E94F832C81AD90AE108F108C70128
:10516000B601CD5FDD4FE2E10C94A2324F925F9227
:105170006F927F928F929F92AF92BF92FF920F9306
:105180001F93CF93DF93C0E0FC2EFF0CFC0ED0E00A
:10519000FA94CD1709F440C042E06D2F8C2F01DF47
:1051A0002B013C0143E06D2F8C2FFBDE4B015C019A
:1051B0000E94500785E990E00E9427090E94CE08CE
:1051C0008C2F0E94CB088AE30E9481088D2F0E94B9
:1051D000CB080E94CE080E94900724E040E26EEFC8
:1051E000C2010E941F0B24E046E462EFC4010E944A
:1051F0001F0B0F2D0D0F10E0000F111FB201C80182
:1052000080569D4F0E940B33B401C8018E569D4FAE
:105210000E940B330E94DA08DF5FD33009F0B9CF68
:10522000CF5FC33009F0B0CF0E94490783EA91E015
:105230000E9427090E94DA0888E20E94A20CDF91EE
:10524000CF911F910F91FF90BF90AF909F908F9043
:105250007F906F905F904F900895A2E1B0E0E3E3FC
:10526000F9E20C9486322C017C836B83DD24D39489
:105270002D2C312C83E0D89EA00111245C874B8714
:10528000F101EE0FFF1FEE0FFF1FFE87ED87812C50
:1052900030E4932E50E0612C712C18861F82A12CD3
:1052A000B12C1A8219821E821D8240E0C12CE0E0DE
:1052B000F0E020E030E061E070E08FEF90E08219F4
:1052C0009309988B8F870C2D10E08F85988908178C
:1052D00019070CF05FC0D801A20DB31DAA0FBB1FA8
:1052E000A40DB51D8D919C91E80FF91FD801AA0F4F
:1052F000BB1FA40DB51D8D919C91280F391FCD1496
:1053000008F48EC0D801A219B309AA0FBB1FA40DBF
:10531000B51D0D90BC91A02D2A1B3B0BE81BF90B72
:105320007901EE0EFF1EC9018E1B9F0B89879A879C
:10533000D701B695A795B695A795A80FB91FB7FD44
:10534000A0C0E217F30708F073C0513009F070C035
:10535000D80156E0AA0FBB1F5A95E1F7BA8BA98B6B
:10536000DC01A61BB70BBD01A817B90770F0A6E0BA
:10537000880F991FAA95E1F780960E940F328989BC
:105380009A89861B970B9A8B898BAB85BC85EA160D
:10539000FB0630F4EB81FC81EF2B09F04DC07BC0A4
:1053A0008D859E8508171907C4F1A989BA894423F8
:1053B000A9F0A619B709433058F0C4018096B4018A
:1053C00076956795860F971F8A179B0708F45FC02D
:1053D000DB1640F4DD24D394DB0E4ACFB887AF83CD
:1053E000FE82ED82AE0CBF1C4F5F4130E1F0642FB6
:1053F00070E061507109CB0195958795A989BA89AB
:105400008A0F9B1FAF81B8858A1B9B0B0E940F32AE
:105410004B0169887A88FA82E982453140F037C0C9
:1054200069877A8705C069887A88FA82E98250E0BC
:10543000C39469857A8547CF4230E0F09501ED81CC
:10544000FE812E1B3F0BA8EEB3E00E946732950150
:1054500049815A81241B350B40E050E0F4D788EE97
:1054600093E0821B930B0E94030EBC0188EB9AE72A
:10547000D6D702C060E070E0AB81BC816D937C93B5
:105480000AC0E217F30708F463CF51E0D1CFEB81F4
:10549000FC81EF2B99F6C4016296E2E10C94A232F2
:1054A000A6E2B2E0E6E5FAE20C948832F82E062F86
:1054B00085EC92E00E94F8323C01E02FF0E0E559E3
:1054C000FD4F1491EF2DF0E0E259FD4FE491109261
:1054D000AA011092AB011092AC011092AD01109292
:1054E000B1011092B0011092B2011092B30110926A
:1054F000B4011092B50180911A01813009F050C1B8
:105500008091020118160CF44BC188E088B9E8605C
:10551000E7B90E94960C006CD02E00937C000E948C
:10552000960CC12EE12C00E0212F4FEFBE016F5FE2
:105530007F4F80E191E00E943E002F2D206CF22EE3
:1055400020937C00212F44E1BE0161507E4F80E119
:1055500091E00E943E00FE013196DE01A150BE4F57
:10556000AE01475D5F4F808191812D913D91821702
:10557000930728F0821B930B9183808302C01182D2
:10558000108232964E175F0771F7D0927C0060E070
:1055900070E0CE01019661DE9F5F913148F090345A
:1055A00070F090E1A92EBA2C24E0822E912C0EC02E
:1055B00080E1A82EBB24B394812C912C07C0B0E1CC
:1055C000AB2EB4E0BB2E02E0802E912CA8E0DA2EA8
:1055D000A895C12EE12C00E0212F4FEFBE016F5F97
:1055E0007F4FC5010E943E008114910479F060EB69
:1055F00071E0CE01019631DE5C0181ECA8168FE3EB
:10560000B80608F45BC0A12CB12C58C0C501806459
:10561000DA94DD2011F05C01DBCF8115944010F0AD
:105620008EEF38C0F0927C00E894A6F8F8E0FF2EE8
:10563000C12EE12C00E0212F44E1BE0161507E4FDC
:10564000C5010E943E006894A6F8FA94F110F0CFCC
:1056500024E1215028F3822F90E0880F991FE1E088
:10566000F0E0EC0FFD1FE80FF91F40815181AFEF13
:10567000B1E0AC0FBD1FA80FB91F8D919C914817C9
:10568000590728F0481B590B51834083E2CF118200
:105690001082DFCF8F3F09F4AACFFE013196E80FC9
:1056A000F11DE80FF11D2081318173E036952795BA
:1056B0007A95E1F7318320838150ECCF6501E12CAD
:1056C000F12C9501D50103D723E330E040E050E011
:1056D000BAD6A8E6B2E010D72FEF821A920A930149
:1056E0003695279540E050E0AED6C401880F991F4B
:1056F00029013A0104C0440C551C661C771C8A958C
:10570000D2F74092B2015092B3016092B40170920C
:10571000B50180910B0190910C01A0910D01B09108
:105720000E010397A105B10540F01092B20110924D
:10573000B3011092B4011092B501A114B10469F43F
:105740001092B1011092B0011092B2011092B30107
:105750001092B4011092B50123C027E030E028195F
:10576000390980E092E1AAE7B0E0BC01CD0104C0B4
:10577000660F771F881F991F2A95D2F7A7019601F8
:1057800062D62093AA013093AB014093AC015093B1
:10579000AD018091020187FD03C08FEF809302016C
:1057A000CA5DDD4FE0E1D0C6CF93DF93D82F0E94D2
:1057B000490786E090E00E9427090E94DA08C0E0CD
:1057C0001092AF011092AE0184E10E94A20C62E03F
:1057D00080E00E94D11C0E94900724E046E464EF20
:1057E0008091AE019091AF010E941F0B6091AE01BC
:1057F0007091AF01CB018C539F408539954780F460
:10580000CF5FC53070F085EC92E005D70E94CE08DE
:1058100083EA91E00E94270984E60E94A20C05C059
:10582000C0E00E94DA08DF5F59F60E944907DF9165
:10583000CF910895A0E0B0E0EFE1FCE267C680E41C
:105840008AB98BB9C6E8C0937A001092C1000E9451
:10585000820CD4B784B7877F84BF0FB6F894A8951D
:1058600080916000886180936000109260000FBE9C
:10587000C093640088E380937E001092B00087E0BC
:105880008093B10078940E946707D3FD9CC580E1A6
:1058900085BFC0E04F9906C082E00E94A20CCF5F96
:1058A000CC33C1F78FE59DE69093130180931201ED
:1058B000CF3130F080E69DE6909313018093120182
:1058C00010922C010E9416209FE088E10FB6F894F8
:1058D000A895809360000FBE9093600038E0932EEF
:1058E00048E1842E5FE3C52E51E0D52E69E5E62E12
:1058F00061E0F62E7CE0272EEDE03E2E8FEA0E943E
:105900003B0784EA0E943B070E94500797B80E9419
:105910004D0E0E9416200E94490783EF90E00E94DE
:10592000270980913A01882381F00E9490078EE335
:1059300091E00E94270963E080912F01909130014E
:105940000E942A0B88EC0E94A20C0E9490070E94E1
:10595000011C80911A01893041F50E94500783E4AF
:1059600091E00E9427090E94900763E08091050161
:10597000909106010E942A0B0E94CE0863E080915C
:105980000701909108010E942A0B0E94CE0863E053
:105990008091090190910A010E942A0B8AEC0E94D1
:1059A000A20C81E10E94CB0E9DC481EB92E018D63F
:1059B000C82F8EEA92E014D6C81BC093370181E04D
:1059C0000E94CB0E0E9407098AE292E00E942709FA
:1059D00083E00E946A0C0E94440742E061E080E09C
:1059E0000E94C81242E060E081E00E94C81241E0DB
:1059F00062E080E00E94C81241E060E082E00E9424
:105A0000C81240E062E081E00E94C81240E061E01C
:105A100082E00E94C81280911A0181110EC00E947A
:105A2000011C60E082E00E94D11C61E082E00E94E3
:105A3000D11C60E081E00E94D11C0E945007D092EE
:105A40003D01C0923C0180911A01863071F485ECD1
:105A50000E943C0860E188EF0E94460B67E080E00E
:105A60000E94130781E092E00FC08730F9F484ECC4
:105A70000E943C0860E188EF0E94460B67E080E0EE
:105A80000E9413078AE092E00E94270967E082E003
:105A90000E94130787E591E00E94270962E0809148
:105AA0004301909144010E942A0B1AC4883081F46A
:105AB00020917F018091800190E0820F911D0297DB
:105AC00019F40E94532219C480E00E94DD210AC407
:105AD000833009F0D1C080911801813009F046C0AF
